:020000040800F2
:10000000D0300020C5010008CD010008CF01000854
:10001000D1010008D3010008D5010008000000004C
:10002000000000000000000000000000D7010008F0
:10003000D901000800000000DB010008DD01000814
:10004000DF010008DF010008DF010008DF01000810
:10005000DF010008DF010008DF010008DF01000800
:10006000DF010008DF010008DF010008DF010008F0
:10007000DF010008DF010008DF010008DF010008E0
:10008000DF010008DF010008DF010008DF010008D0
:10009000DF010008DF010008DF010008DF010008C0
:1000A000DF010008DF010008DF010008DF010008B0
:1000B000C9060008DF010008DF010008DF010008B1
:1000C000DF010008DF010008DF010008DF01000890
:1000D000DF0100084D080008DF010008DF0100080B
:1000E000DF010008DF010008DF010008DF01000870
:1000F000DF010008DF010008DF010008DF01000860
:10010000DF010008DF010008DF010008DF0100084F
:10011000DF010008DF010008DF010008DF0100083F
:10012000DF010008DF010008DF010008DF0100082F
:10013000DF010008DF010008DF010008DF0100081F
:10014000DF010008DF010008DF010008DF0100080F
:10015000DF010008DF010008DF010008DF010008FF
:10016000DF010008DF010008DF010008DF010008EF
:10017000DF010008DF010008DF010008DF010008DF
:10018000DF010008DF010008DF010008DF010008CF
:10019000DF010008DF010008DF010008DF010008BF
:1001A000DF010008DF010008DF010008DFF810D0E0
:1001B00000F01AF800480047DD0E0008AFF3008099
:1001C000D03000200648804706480047FEE7FEE79B
:1001D000FEE7FEE7FEE7FEE7FEE7FEE7FEE7FEE7F7
:1001E0006D060008AD010008064C074D06E0E0680A
:1001F00040F0010394E8070098471034AC42F6D36E
:10020000FFF7D8FF600F0008800F000870B586B0B8
:100210000121084600F044F90121102000F05CF9AA
:10022000224E07220A21304600F082F807220921D7
:10023000304600F07DF800248DF8164001208DF83E
:10024000170002258DF81450410204918DF81550C5
:1002500004A9304600F02EF88DF81450680204907E
:1002600004A9304600F026F84FF4E1300090ADF8D4
:100270000440ADF80640ADF80840ADF80C400C2045
:10028000ADF80A000A4C6946204600F05FFB00F01A
:10029000B5F8012240F22551204600F03CFB012137
:1002A000204600F005FB06B070BD000000000240D3
:1002B000001001402DE9F041002201274FF0030C0E
:1002C00007FA02F50B682B40AB422CD106685300AD
:1002D0000CFA03F4A64306600E79D0F800809E4025
:1002E00046EA080606600E79012E01D0022E12D1D0
:1002F0008668A64386604E79D0F808809E4046EA1C
:10030000080686604668AE43466045688E7996402A
:10031000B6B235434560C568A543C560CC799C40FD
:10032000C3681C43C460521C102AC9D3BDE8F081C5
:1003300010B54B07DB0E9A40C90800EB8100016A3B
:100340000F249C40A1430162016A1143016210BD68
:100350002DE9F0410746082F1AD24FF000054FF063
:10036000FF062C46204600F031F810B16D1CEDB2AE
:100370002646012D03D8641CE4B2082CF2D3012DCB
:1003800004D1BE4202D10120BDE8F0810020FBE78C
:100390000BD1002000F01AF828B1012000F016F867
:1003A00008B10120F0E70020EEE7092F01D000207E
:1003B000EAE7012000F00AF828B1022000F006F870
:1003C00008B10120E0E70020DEE7000009490870DD
:1003D000094901EB0011086800694A68104201D11F
:1003E000002000E00120097A814201D101207047FC
:1003F0000020704711000020E00E000808B54FF4FF
:10040000C06000F043F825208DF8000000208DF832
:10041000010001208DF802008DF80300684600F00D
:1004200001F808BD30B50F23C27801250178002AF4
:100430001FD0154A126802F4E062C2F5E062C2F30E
:100440000722C2F10404D3404278A24084781C40C1
:100450001443220101F1E02181F80024007800F02A
:100460001F018D404009800000F1E020C0F80051DC
:1004700030BD01F01F0085404809800000F1E020F8
:10048000C0F8805130BD00000CED00E00249084387
:1004900002490860704700000000FA050CED00E01A
:1004A000054A002903D011680143116070471168A3
:1004B000814311607047000030380240054A00292E
:1004C00003D01168014311607047116881431160C6
:1004D0007047000040380240054A002903D01168E7
:1004E000014311607047116881431160704700003B
:1004F0004438024070B5244B196801F00C01234CBC
:1005000000291ED0224E04291DD008291DD00460C8
:10051000196801F0F00109091E4A545C0168E140C4
:1005200041601C6804F4E054A40A145D21FA04F448
:1005300084601B6803F460435B0BD25CD140C160F4
:1005400070BD0460E4E70660E2E70F4A121F11681D
:10055000C1F38055116801F03F0135B1B6FBF1F1EF
:100560001468C4F38814614305E0B4FBF1F1146826
:10057000C4F3881461431268C2F30142521C520052
:10058000B1FBF2F10160C3E7083802400024F40037
:10059000001BB700000000201CB500210191009154
:1005A0002E4A106840F4803010604FF4A043106869
:1005B00000F4003000900198401C0190009810B9A0
:1005C00001989842F3D11068800302D50120009071
:1005D00000E00091009801283FD120484030016898
:1005E00041F0805101601E49086840F440400860B5
:1005F0001A48083003680360036843F4004303604B
:10060000036843F4A0530360041F164B2360136870
:1006100043F08073136013689B01FCD50A6842F4B1
:1006200080320A604A68D203FCD50A6842F400327C
:100630000A604A689203FCD50B4A40F205711160CA
:10064000016821F003010160016841F002010160CD
:100650000168C1F381010229FAD11CBD00380240B2
:10066000007000400C5A4007003C024010B5124890
:10067000016841F4700101601048016841F0010116
:1006800001600E4A00210832116002680C4B1A40CA
:100690000260031D0B4A1A60026822F48022026085
:1006A00006480C300160FFF777FF03494FF0006008
:1006B0008039086010BD000088ED00E0003802407D
:1006C000FFFFF6FE1030002410B501218C072046F4
:1006D00000F028F8002810D0084A11780A2902D220
:1006E000491C117003E00020107000F079FA2046D8
:1006F000BDE81040012100F006B810BD1000002038
:10070000C94301827047C94301827047002904D060
:10071000018841F0010101807047018821F0010149
:100720000180704702460020138A0B4092890A40DC
:10073000002B02D0002A00D001207047002A03D0ED
:1007400082890A438281704782898A438281704705
:100750003EB501210846FFF7B1FE42F20F7001904D
:100760000820ADF800000020ADF80800ADF8020048
:100770004FF080446946204600F00EF801212046E3
:10078000FFF7BEFF012211462046FFF7D7FF0121E8
:100790002046FFF7BBFF3EBD30B50288164C174D13
:1007A000A0420DD0A8420BD0B0F1804F08D0144B1E
:1007B000984205D0134B984202D0134B984203D174
:1007C00022F070034A881A43104B984206D0104B0F
:1007D000984203D022F440730A891A4302804A687F
:1007E000C2620A880285A04201D0A84201D1897A5A
:1007F00001860121818230BD0000014000040140DA
:100800000004004000080040000C004000100040C0
:100810000014004010B500F004F8BDE81040FFF7E8
:1008200097BF08B54FF4A060FFF730FE1C208DF88D
:10083000000001208DF8010003218DF802108DF8D1
:1008400003006846FFF7EEFD08BD704770B5114C18
:1008500040F225552946204600F03DF8012809D1EF
:100860002946204600F01CF8204600F0CDF8C0B222
:10087000FFF7EBFF0821204600F026F8012808D1F9
:100880000821204600F008F82046BDE8704000F03E
:10089000BBB870BD001001408A05C9430180704794
:1008A00040F66A120A0A01219140C943018070474B
:1008B000002904D0818941F40051818170478189E8
:1008C00021F40051818170470246002012880A42BB
:1008D00000D00120704770B5002440F66A12C1F3C1
:1008E000421301F01F05012606FA05F2012B0CD078
:1008F000022B0DD0838A1340090A8E4000883040B5
:100900000BB100B10124204670BD83891340F3E789
:10091000038A1340F0E710B540F66A13C1F342139F
:1009200001F01F040121A140012B07D0022B07D0A9
:1009300014303AB102680A43026010BD0C30F8E787
:100940001030F6E702688A43026010BD7FB50446A6
:100950000D46208A20F44051E88808432082A0896F
:1009600041F20C618843A9882A8911436A890243AC
:100970001143A181A08A20F44071A8890843A08274
:100980006846FFF7B7FD1E48844202D01D488442E6
:1009900001D1039800E00298A189090408D500EB71
:1009A000C00101EB001029684900B0FBF1F007E03D
:1009B00000EBC00101EB001029688900B0FBF1F0E9
:1009C0006422B0FBF2F109010B096FF018056B43CB
:1009D00000EB8300A3891D044FF0320307D503EB1E
:1009E000C000B0FBF2F000F00700084306E003EBA4
:1009F0000010B0FBF2F000F00F00084320817FBD33
:100A000000100140001401408088C0F308007047C6
:100A1000C1F3080181807047014A024900F013B810
:100A2000150C00081400002002E008C8121F08C1BD
:100A3000002AFAD170477047002001E001C1121F5F
:100A4000002AFBD170472DE9F04116460F460446B7
:100A5000002503E03946B047641C6D1C207800284F
:100A6000F8D12846BDE8F0812DE9F04106462B4833
:100A700000EB06143046FFF76BFC052206EB46053B
:100A80000027B0B32179052902D22271BDE8F08197
:100A90000A2902D2491C2171F8E7A07A06EB460622
:100AA000761C20B90120A072F0B200F0A3F82189D1
:100AB0000029EBD0E08888420BD2401C80B2E08055
:100AC00021898842E2D1ED1CE8B2BDE8F04100F096
:100AD00091B8E07A0028D9D0207B401CC0B22073A6
:100AE000E17A8842D2D32773F0B2BDE8F04100F03A
:100AF00081B82079052801D922710BE010B1401E80
:100B0000207107E0A07A012804D1A772AD1CE8B2D9
:100B100000F070F8E7802773B8E7000018000020A5
:100B2000094A10785178884201D100207047117825
:100B300005480830085C1178491CC9B211700A29AF
:100B4000F4D3002111707047B800002010B500F0F8
:100B50002DF8BDE8104000F001B800007CB500247D
:100B6000114D012105EB0410C068FFF799FC641CCE
:100B7000E4B2082CF5D300208DF804008DF80600AF
:100B80008DF8050001208DF80700002405EB041006
:100B90004168009100686946FFF78CFB641CE4B271
:100BA000082CF3D37CBD0000E00E000870B50B48A4
:100BB0000022027042708270002164260225A0F19A
:100BC000A0030A2403EB0110068105718272C4722E
:100BD0000273491CC9B20A29F4D370BDB8000020C1
:100BE00010B500242046FFF73FFF641CE4B20A2C36
:100BF000F8D310BD06494B7801F1080298544878A3
:100C0000401CC0B248700A2801D3002048707047C9
:100C1000B800002070B50446064DE1B22846FFF743
:100C2000F7FE80212846FFF74FFE0028F9D0204626
:100C300070BD000000100140FFF7E8FAFFF7EAFD81
:100C4000FFF784FF0120FFF7D5FFFFF769FF0028BA
:100C5000FBD01F28F9D2DFE800F0101115191D2173
:100C600025292D3135393D4145494D5155595D6154
:100C700065696D7175797D818500E6E73BA0FFF7B9
:100C8000CBFEE2E73CA0FFF7C7FEDEE73DA0FFF7A3
:100C9000C3FEDAE73EA0FFF7BFFED6E73FA0FFF7AF
:100CA000BBFED2E740A0FFF7B7FECEE741A0FFF7BB
:100CB000B3FECAE742A0FFF7AFFEC6E743A0FFF7C7
:100CC000ABFEC2E744A0FFF7A7FEBEE745A0FFF7D3
:100CD000A3FEBAE746A0FFF79FFEB6E747A0FFF7DF
:100CE0009BFEB2E748A0FFF797FEAEE749A0FFF7EB
:100CF00093FEAAE74AA0FFF78FFEA6E74BA0FFF7F7
:100D00008BFEA2E74CA0FFF787FE9EE74DA0FFF702
:100D100083FE9AE74EA0FFF77FFE96E74FA0FFF70E
:100D20007BFE92E750A0FFF777FE8EE751A0FFF71A
:100D300073FE8AE752A0FFF76FFE86E753A0FFF726
:100D40006BFE82E754A0FFF767FE7EE755A0FFF732
:100D500063FE7AE756A0FFF75FFE76E758A0FFF73D
:100D60005BFE72E759A0FFF757FE6EE74B45595FF0
:100D7000315F444F574E0A004B45595F315F555024
:100D80000A0000004B45595F315F4C4F4E470A0047
:100D90004B45595F325F444F574E0A004B45595FF0
:100DA000325F55500A0000004B45595F325F4C4F8F
:100DB0004E470A004B45595F335F444F574E0A0078
:100DC0004B45595F335F55500A0000004B45595F52
:100DD000335F4C4F4E470A004B45595F345F444FD9
:100DE000574E0A004B45595F345F55500A000000CA
:100DF0004B45595F345F4C4F4E470A004B45595F96
:100E0000355F444F574E0A004B45595F355F55508B
:100E10000A0000004B45595F355F4C4F4E470A00B2
:100E20004B45595F365F444F574E0A004B45595F5B
:100E3000365F55500A0000004B45595F365F4C4FF6
:100E40004E470A004B45595F375F444F574E0A00E3
:100E50004B45595F375F55500A0000004B45595FBD
:100E6000375F4C4F4E470A004B45595F385F444F40
:100E7000574E0A004B45595F385F55500A00000035
:100E80004B45595F385F4C4F4E470A004B45595F01
:100E9000395F444F574E0A004B45595F395F5550F3
:100EA0000A0000004B45595F395F4C4F4E470A001E
:100EB0004B45595F31305F444F574E0A00000000E8
:100EC0004B45595F31305F55500A00004B45595F23
:100ED00031305F4C4F4E470A00000000FFF7ACBEB8
:100EE0000018024000080000000000004000000060
:100EF000000C024008000000000000000800000094
:100F00000014024000040000000000002000000067
:100F10000004024000080000000000000200000081
:100F200000180240400000000000000040000000E7
:100F300000140240400000000000000020000000FB
:100F4000000002400100000000000000010000005D
:100F5000000002400200000000000000010000004C
:100F6000800F00080000002018000000280A000878
:100F7000980F000818000020B8300000380A000858
:100F8000000000000102030401020304060708092F
:080F9000000000000000000059
:04000005080001AD41
:00000001FF
